{
  "contractName": "Healthcare",
  "abi": [
    {
      "inputs": [],
      "stateMutability": "nonpayable",
      "type": "constructor"
    },
    {
      "anonymous": false,
      "inputs": [
        {
          "indexed": true,
          "internalType": "bytes32",
          "name": "role",
          "type": "bytes32"
        },
        {
          "indexed": true,
          "internalType": "bytes32",
          "name": "previousAdminRole",
          "type": "bytes32"
        },
        {
          "indexed": true,
          "internalType": "bytes32",
          "name": "newAdminRole",
          "type": "bytes32"
        }
      ],
      "name": "RoleAdminChanged",
      "type": "event"
    },
    {
      "anonymous": false,
      "inputs": [
        {
          "indexed": true,
          "internalType": "bytes32",
          "name": "role",
          "type": "bytes32"
        },
        {
          "indexed": true,
          "internalType": "address",
          "name": "account",
          "type": "address"
        },
        {
          "indexed": true,
          "internalType": "address",
          "name": "sender",
          "type": "address"
        }
      ],
      "name": "RoleGranted",
      "type": "event"
    },
    {
      "anonymous": false,
      "inputs": [
        {
          "indexed": true,
          "internalType": "bytes32",
          "name": "role",
          "type": "bytes32"
        },
        {
          "indexed": true,
          "internalType": "address",
          "name": "account",
          "type": "address"
        },
        {
          "indexed": true,
          "internalType": "address",
          "name": "sender",
          "type": "address"
        }
      ],
      "name": "RoleRevoked",
      "type": "event"
    },
    {
      "inputs": [],
      "name": "DEFAULT_ADMIN_ROLE",
      "outputs": [
        {
          "internalType": "bytes32",
          "name": "",
          "type": "bytes32"
        }
      ],
      "stateMutability": "view",
      "type": "function",
      "constant": true
    },
    {
      "inputs": [
        {
          "internalType": "bytes32",
          "name": "role",
          "type": "bytes32"
        }
      ],
      "name": "getRoleAdmin",
      "outputs": [
        {
          "internalType": "bytes32",
          "name": "",
          "type": "bytes32"
        }
      ],
      "stateMutability": "view",
      "type": "function",
      "constant": true
    },
    {
      "inputs": [
        {
          "internalType": "bytes32",
          "name": "role",
          "type": "bytes32"
        },
        {
          "internalType": "address",
          "name": "account",
          "type": "address"
        }
      ],
      "name": "grantRole",
      "outputs": [],
      "stateMutability": "nonpayable",
      "type": "function"
    },
    {
      "inputs": [
        {
          "internalType": "bytes32",
          "name": "role",
          "type": "bytes32"
        },
        {
          "internalType": "address",
          "name": "account",
          "type": "address"
        }
      ],
      "name": "hasRole",
      "outputs": [
        {
          "internalType": "bool",
          "name": "",
          "type": "bool"
        }
      ],
      "stateMutability": "view",
      "type": "function",
      "constant": true
    },
    {
      "inputs": [
        {
          "internalType": "bytes32",
          "name": "role",
          "type": "bytes32"
        },
        {
          "internalType": "address",
          "name": "account",
          "type": "address"
        }
      ],
      "name": "renounceRole",
      "outputs": [],
      "stateMutability": "nonpayable",
      "type": "function"
    },
    {
      "inputs": [
        {
          "internalType": "bytes32",
          "name": "role",
          "type": "bytes32"
        },
        {
          "internalType": "address",
          "name": "account",
          "type": "address"
        }
      ],
      "name": "revokeRole",
      "outputs": [],
      "stateMutability": "nonpayable",
      "type": "function"
    },
    {
      "inputs": [
        {
          "internalType": "bytes4",
          "name": "interfaceId",
          "type": "bytes4"
        }
      ],
      "name": "supportsInterface",
      "outputs": [
        {
          "internalType": "bool",
          "name": "",
          "type": "bool"
        }
      ],
      "stateMutability": "view",
      "type": "function",
      "constant": true
    },
    {
      "inputs": [
        {
          "internalType": "address",
          "name": "_patientAddress",
          "type": "address"
        }
      ],
      "name": "setPatientContractAddress",
      "outputs": [],
      "stateMutability": "nonpayable",
      "type": "function"
    },
    {
      "inputs": [
        {
          "internalType": "address",
          "name": "_doctorAddress",
          "type": "address"
        }
      ],
      "name": "setDoctorContractAddress",
      "outputs": [],
      "stateMutability": "nonpayable",
      "type": "function"
    },
    {
      "inputs": [
        {
          "internalType": "address",
          "name": "_hospitalContractAddress",
          "type": "address"
        }
      ],
      "name": "setHospitalContractAddress",
      "outputs": [],
      "stateMutability": "nonpayable",
      "type": "function"
    },
    {
      "inputs": [
        {
          "internalType": "address",
          "name": "_pharmacyContractAddress",
          "type": "address"
        }
      ],
      "name": "setPharmacyContractAddress",
      "outputs": [],
      "stateMutability": "nonpayable",
      "type": "function"
    },
    {
      "inputs": [
        {
          "internalType": "string",
          "name": "_name",
          "type": "string"
        },
        {
          "internalType": "string",
          "name": "_personalDetails",
          "type": "string"
        },
        {
          "internalType": "address",
          "name": "_hospitalAddress",
          "type": "address"
        },
        {
          "internalType": "address",
          "name": "addressOfUser",
          "type": "address"
        },
        {
          "internalType": "string",
          "name": "_hash",
          "type": "string"
        }
      ],
      "name": "registerPatient",
      "outputs": [
        {
          "internalType": "string",
          "name": "status",
          "type": "string"
        }
      ],
      "stateMutability": "nonpayable",
      "type": "function"
    },
    {
      "inputs": [
        {
          "internalType": "string",
          "name": "_name",
          "type": "string"
        },
        {
          "internalType": "string",
          "name": "_personalDetails",
          "type": "string"
        },
        {
          "internalType": "address",
          "name": "_hospitalAddress",
          "type": "address"
        },
        {
          "internalType": "address",
          "name": "addressOfUser",
          "type": "address"
        }
      ],
      "name": "registerDoctor",
      "outputs": [
        {
          "internalType": "string",
          "name": "status",
          "type": "string"
        }
      ],
      "stateMutability": "nonpayable",
      "type": "function"
    },
    {
      "inputs": [
        {
          "internalType": "string",
          "name": "_name",
          "type": "string"
        },
        {
          "internalType": "string",
          "name": "_hospitalDetails",
          "type": "string"
        },
        {
          "internalType": "address",
          "name": "_hospitalAddress",
          "type": "address"
        }
      ],
      "name": "registerHospital",
      "outputs": [
        {
          "internalType": "string",
          "name": "status",
          "type": "string"
        }
      ],
      "stateMutability": "nonpayable",
      "type": "function"
    },
    {
      "inputs": [
        {
          "internalType": "string",
          "name": "_name",
          "type": "string"
        },
        {
          "internalType": "string",
          "name": "_personalDetails",
          "type": "string"
        },
        {
          "internalType": "address",
          "name": "addressOfUser",
          "type": "address"
        }
      ],
      "name": "registerPharmacy",
      "outputs": [
        {
          "internalType": "string",
          "name": "status",
          "type": "string"
        }
      ],
      "stateMutability": "nonpayable",
      "type": "function"
    },
    {
      "inputs": [
        {
          "internalType": "address",
          "name": "_addressOfPatient",
          "type": "address"
        }
      ],
      "name": "getPatientData",
      "outputs": [
        {
          "internalType": "string",
          "name": "name",
          "type": "string"
        },
        {
          "internalType": "string",
          "name": "personalDetails",
          "type": "string"
        },
        {
          "internalType": "address",
          "name": "Address",
          "type": "address"
        }
      ],
      "stateMutability": "view",
      "type": "function",
      "constant": true
    },
    {
      "inputs": [
        {
          "internalType": "address",
          "name": "addressOfUser",
          "type": "address"
        },
        {
          "internalType": "address",
          "name": "_addressOfHigherAuthority",
          "type": "address"
        }
      ],
      "name": "getDoctorData",
      "outputs": [
        {
          "internalType": "string",
          "name": "name",
          "type": "string"
        },
        {
          "internalType": "string",
          "name": "personalDetails",
          "type": "string"
        },
        {
          "internalType": "address",
          "name": "Address",
          "type": "address"
        }
      ],
      "stateMutability": "view",
      "type": "function",
      "constant": true
    },
    {
      "inputs": [
        {
          "internalType": "address",
          "name": "addressOfHospital",
          "type": "address"
        }
      ],
      "name": "getHospitalData",
      "outputs": [
        {
          "internalType": "string",
          "name": "_nameAdmin",
          "type": "string"
        },
        {
          "internalType": "string",
          "name": "hospitalDetails",
          "type": "string"
        },
        {
          "internalType": "address",
          "name": "walletAddress",
          "type": "address"
        }
      ],
      "stateMutability": "view",
      "type": "function",
      "constant": true
    },
    {
      "inputs": [
        {
          "internalType": "address",
          "name": "addressOfPharmacy",
          "type": "address"
        }
      ],
      "name": "getPharmacyData",
      "outputs": [
        {
          "internalType": "string",
          "name": "pharmacyName",
          "type": "string"
        },
        {
          "internalType": "string",
          "name": "pharmacyDetails",
          "type": "string"
        },
        {
          "internalType": "address",
          "name": "pharmacyWalletAddress",
          "type": "address"
        }
      ],
      "stateMutability": "view",
      "type": "function",
      "constant": true
    },
    {
      "inputs": [
        {
          "internalType": "address",
          "name": "_walletAddress",
          "type": "address"
        },
        {
          "internalType": "string",
          "name": "_personalDetails",
          "type": "string"
        }
      ],
      "name": "updatePatientPersonalData",
      "outputs": [
        {
          "internalType": "bool",
          "name": "success",
          "type": "bool"
        }
      ],
      "stateMutability": "nonpayable",
      "type": "function"
    },
    {
      "inputs": [
        {
          "internalType": "address",
          "name": "_patientAddress",
          "type": "address"
        },
        {
          "internalType": "address",
          "name": "_addressOfHigherAuthority",
          "type": "address"
        },
        {
          "internalType": "string",
          "name": "medicalRecordHash",
          "type": "string"
        }
      ],
      "name": "updatePatientMedicalRecords",
      "outputs": [
        {
          "internalType": "string",
          "name": "status",
          "type": "string"
        }
      ],
      "stateMutability": "nonpayable",
      "type": "function"
    },
    {
      "inputs": [
        {
          "internalType": "address",
          "name": "_patientAddress",
          "type": "address"
        },
        {
          "internalType": "address",
          "name": "_addressOfHigherAuthority",
          "type": "address"
        },
        {
          "internalType": "string",
          "name": "prescriptionHash",
          "type": "string"
        }
      ],
      "name": "updatePrescriptionToPatient",
      "outputs": [
        {
          "internalType": "string",
          "name": "status",
          "type": "string"
        }
      ],
      "stateMutability": "nonpayable",
      "type": "function"
    },
    {
      "inputs": [
        {
          "internalType": "address",
          "name": "_patientAddress",
          "type": "address"
        }
      ],
      "name": "getNewPrescription",
      "outputs": [
        {
          "internalType": "string",
          "name": "status",
          "type": "string"
        }
      ],
      "stateMutability": "view",
      "type": "function",
      "constant": true
    },
    {
      "inputs": [
        {
          "internalType": "address",
          "name": "_patientAddress",
          "type": "address"
        }
      ],
      "name": "getMultiplePrescription",
      "outputs": [
        {
          "internalType": "string[]",
          "name": "status",
          "type": "string[]"
        }
      ],
      "stateMutability": "view",
      "type": "function",
      "constant": true
    },
    {
      "inputs": [
        {
          "internalType": "address",
          "name": "_patientAddress",
          "type": "address"
        }
      ],
      "name": "getNewRecords",
      "outputs": [
        {
          "internalType": "string",
          "name": "status",
          "type": "string"
        }
      ],
      "stateMutability": "view",
      "type": "function",
      "constant": true
    },
    {
      "inputs": [
        {
          "internalType": "address",
          "name": "_patientAddress",
          "type": "address"
        }
      ],
      "name": "getMultipleRecords",
      "outputs": [
        {
          "internalType": "string[]",
          "name": "status",
          "type": "string[]"
        }
      ],
      "stateMutability": "view",
      "type": "function",
      "constant": true
    },
    {
      "inputs": [
        {
          "internalType": "address",
          "name": "_addressOfAdmin",
          "type": "address"
        },
        {
          "internalType": "address",
          "name": "_addressOfPatient",
          "type": "address"
        }
      ],
      "name": "grantRoleVerifiedPatient",
      "outputs": [
        {
          "internalType": "bool",
          "name": "success",
          "type": "bool"
        }
      ],
      "stateMutability": "nonpayable",
      "type": "function"
    },
    {
      "inputs": [
        {
          "internalType": "address",
          "name": "_addressOfAdmin",
          "type": "address"
        },
        {
          "internalType": "address",
          "name": "_addressOfDoctor",
          "type": "address"
        }
      ],
      "name": "grantRoleVerifiedDoctor",
      "outputs": [
        {
          "internalType": "bool",
          "name": "success",
          "type": "bool"
        }
      ],
      "stateMutability": "nonpayable",
      "type": "function"
    },
    {
      "inputs": [
        {
          "internalType": "address",
          "name": "_patientAddress",
          "type": "address"
        },
        {
          "internalType": "address",
          "name": "_addressOfHigherAuthority",
          "type": "address"
        }
      ],
      "name": "fetchPrescriptionDetailsPharmacy",
      "outputs": [
        {
          "internalType": "string",
          "name": "prescriptionHash",
          "type": "string"
        }
      ],
      "stateMutability": "view",
      "type": "function",
      "constant": true
    },
    {
      "inputs": [
        {
          "internalType": "address",
          "name": "_addr",
          "type": "address"
        }
      ],
      "name": "getEthBalance",
      "outputs": [
        {
          "internalType": "uint256",
          "name": "",
          "type": "uint256"
        }
      ],
      "stateMutability": "view",
      "type": "function",
      "constant": true
    },
    {
      "inputs": [
        {
          "internalType": "address",
          "name": "_senderAddress",
          "type": "address"
        },
        {
          "internalType": "address payable",
          "name": "_receiverAddress",
          "type": "address"
        },
        {
          "internalType": "uint256",
          "name": "_amount",
          "type": "uint256"
        }
      ],
      "name": "transferMoney",
      "outputs": [],
      "stateMutability": "nonpayable",
      "type": "function"
    }
  ],
  "bytecode": "0x60806040523480156200001157600080fd5b506200002d60008051602062001f2383398151915280620000b6565b620000687fc9c8e67a61d2e7371df46522b44051b955c16bf4b713ef44e1373b25bfcd80b260008051602062001f23833981519152620000b6565b620000a37fe5786ee6f50ab1a5567cb3f3f6840a2f4ddbafdf4a35cb2c52d5b732b1e84a3260008051602062001f23833981519152620000b6565b620000b06000336200010b565b620001e7565b6000620000c3836200011b565b600084815260208190526040808220600101859055519192508391839186917fbd79b86ffe0ab8e8776151514217cd7cacd52c909f66475c3af44e129f0b00ff9190a4505050565b62000117828262000130565b5050565b60009081526020819052604090206001015490565b6200013c8282620001ba565b62000117576000828152602081815260408083206001600160a01b03851684529091529020805460ff1916600117905562000176620001e3565b6001600160a01b0316816001600160a01b0316837f2f8788117e7eff1d82e926ec794901d17c78024a50270940304540a733656f0d60405160405180910390a45050565b6000918252602082815260408084206001600160a01b0393909316845291905290205460ff1690565b3390565b611d2c80620001f76000396000f3fe608060405234801561001057600080fd5b50600436106101e55760003560e01c80637933ef8b1161010f578063a217fddf116100a2578063d7b578cd11610071578063d7b578cd1461042e578063e21eadcc14610441578063e37e969614610454578063e8300b1d14610467576101e5565b8063a217fddf146103ed578063ac291867146103f5578063b9a47e9014610408578063d547741f1461041b576101e5565b806394352810116100de57806394352810146103a157806398388652146103b457806398773031146103c75780639da48cc7146103da576101e5565b80637933ef8b1461035557806387ff221f146103685780638808511e1461037b57806391d148541461038e576101e5565b80633f9c1090116101875780634d2301cc116101565780634d2301cc146103095780636410381c1461031c5780637799c0491461032f57806377aee29214610342576101e5565b80633f9c1090146102ae5780634160549c146102c1578063442aae27146102e357806348e81852146102f6576101e5565b8063248a9ca3116101c3578063248a9ca31461024857806324a71857146102685780632f2ff15d1461028857806336568abe1461029b576101e5565b806301ffc9a7146101ea5780630391851e14610213578063224ccd0f14610228575b600080fd5b6101fd6101f8366004611656565b61047a565b60405161020a9190611a17565b60405180910390f35b610226610221366004611419565b6104a5565b005b61023b610236366004611419565b6104c7565b60405161020a91906119b7565b61025b61025636600461161a565b610555565b60405161020a9190611a22565b61027b6102763660046116b1565b61056a565b60405161020a9190611a2b565b610226610296366004611632565b610619565b6102266102a9366004611632565b610642565b6101fd6102bc36600461150d565b610691565b6102d46102cf366004611435565b610720565b60405161020a93929190611a3e565b61027b6102f13660046114ad565b61082a565b6102d4610304366004611419565b610884565b61025b610317366004611419565b610950565b61022661032a36600461146d565b61095d565b61027b61033d366004611419565b6109ae565b61023b610350366004611419565b610a35565b610226610363366004611419565b610a68565b61027b6103763660046116b1565b610a8a565b61027b610389366004611790565b610aeb565b6101fd61039c366004611632565b610baf565b61027b6103af366004611816565b610bd8565b6102266103c2366004611419565b610c9f565b61027b6103d5366004611435565b610cc1565b61027b6103e83660046114ad565b610dca565b61025b610e21565b61027b610403366004611419565b610e26565b6101fd610416366004611435565b610e59565b610226610429366004611632565b610f00565b61022661043c366004611419565b610f1f565b6102d461044f366004611419565b610f41565b6101fd610462366004611435565b610f7a565b6102d4610475366004611419565b610fe8565b60006001600160e01b03198216637965db0b60e01b148061049f575061049f82611040565b92915050565b600480546001600160a01b0319166001600160a01b0392909216919091179055565b60015460405163224ccd0f60e01b81526060916001600160a01b031690819063224ccd0f906104fa908690600401611965565b60006040518083038186803b15801561051257600080fd5b505afa158015610526573d6000803e3d6000fd5b505050506040513d6000823e601f3d908101601f1916820160405261054e919081019061155b565b9392505050565b60009081526020819052604090206001015490565b6060610584600080516020611cd783398151915283611059565b6003546040516324a7185760e01b81526001600160a01b039091169081906324a71857906105ba90889088908890600401611a3e565b600060405180830381600087803b1580156105d457600080fd5b505af11580156105e8573d6000803e3d6000fd5b505050506040513d6000823e601f3d908101601f19168201604052610610919081019061167e565b95945050505050565b61062282610555565b6106338161062e611063565b611067565b61063d83836110cb565b505050565b61064a611063565b6001600160a01b0316816001600160a01b0316146106835760405162461bcd60e51b815260040161067a90611b57565b60405180910390fd5b61068d8282611150565b5050565b6001546040516303f9c10960e41b81526000916001600160a01b0316908190633f9c1090906106c69087908790600401611993565b602060405180830381600087803b1580156106e057600080fd5b505af11580156106f4573d6000803e3d6000fd5b505050506040513d601f19601f8201168201806040525081019061071891906115fa565b949350505050565b606080600061074f7fc9c8e67a61d2e7371df46522b44051b955c16bf4b713ef44e1373b25bfcd80b286610baf565b8061076d575061076d600080516020611cb783398151915286610baf565b8061078b575061078b600080516020611cd783398151915286610baf565b61079457600080fd5b600254604051631058152760e21b81526001600160a01b03909116908190634160549c906107c89089908990600401611979565b60006040518083038186803b1580156107e057600080fd5b505afa1580156107f4573d6000803e3d6000fd5b505050506040513d6000823e601f3d908101601f1916820160405261081c9190810190611726565b935093509350509250925092565b6060610844600080516020611cb783398151915284610baf565b61084d57600080fd5b60015460405160016202805f60e11b031981526001600160a01b0390911690819063fffaff42906105ba9088908790600401611993565b60608060006108b37f0e55d2d590eb481461be8bfa869367231c671a31d6401bfeaf2d5cb5787ff25285610baf565b6108bc57600080fd5b6001546040516324740c2960e11b81526001600160a01b039091169081906348e81852906108ee908890600401611965565b60006040518083038186803b15801561090657600080fd5b505afa15801561091a573d6000803e3d6000fd5b505050506040513d6000823e601f3d908101601f191682016040526109429190810190611726565b935093509350509193909250565b6001600160a01b03163190565b336001600160a01b0384161461097257600080fd5b6040516001600160a01b0383169082156108fc029083906000818181858888f193505050501580156109a8573d6000803e3d6000fd5b50505050565b600154604051637799c04960e01b81526060916001600160a01b0316908190637799c049906109e1908690600401611965565b60006040518083038186803b1580156109f957600080fd5b505afa158015610a0d573d6000803e3d6000fd5b505050506040513d6000823e601f3d908101601f1916820160405261054e919081019061167e565b600154604051633bd7714960e11b81526060916001600160a01b03169081906377aee292906104fa908690600401611965565b600280546001600160a01b0319166001600160a01b0392909216919091179055565b6060610ab67f6d960d3aada907633a701143a0c8a0657b9ed1e77b6d2d8b56e5d8813982e10c83611059565b600480546040516387ff221f60e01b81526001600160a01b039091169182916387ff221f916105ba9189918991899101611a3e565b6060610b177fc9c8e67a61d2e7371df46522b44051b955c16bf4b713ef44e1373b25bfcd80b283611059565b600254604051634404288f60e11b81526001600160a01b03909116908190638808511e90610b4f908990899089908990600401611a7c565b600060405180830381600087803b158015610b6957600080fd5b505af1158015610b7d573d6000803e3d6000fd5b505050506040513d6000823e601f3d908101601f19168201604052610ba5919081019061167e565b9695505050505050565b6000918252602082815260408084206001600160a01b0393909316845291905290205460ff1690565b6060610c047fe5786ee6f50ab1a5567cb3f3f6840a2f4ddbafdf4a35cb2c52d5b732b1e84a3284611059565b600154604051630943528160e41b81526001600160a01b03909116908190639435281090610c3e908a908a908a908a908a90600401611ac6565b600060405180830381600087803b158015610c5857600080fd5b505af1158015610c6c573d6000803e3d6000fd5b505050506040513d6000823e601f3d908101601f19168201604052610c94919081019061167e565b979650505050505050565b600380546001600160a01b0319166001600160a01b0392909216919091179055565b6060610ced7f6d960d3aada907633a701143a0c8a0657b9ed1e77b6d2d8b56e5d8813982e10c83610baf565b80610d0b5750610d0b600080516020611cb783398151915283610baf565b80610d3b5750610d3b7f0e55d2d590eb481461be8bfa869367231c671a31d6401bfeaf2d5cb5787ff25283610baf565b610d4457600080fd5b60015460405163ac29186760e01b81526001600160a01b0390911690819063ac29186790610d76908790600401611965565b60006040518083038186803b158015610d8e57600080fd5b505afa158015610da2573d6000803e3d6000fd5b505050506040513d6000823e601f3d908101601f19168201604052610718919081019061167e565b6060610de4600080516020611cb783398151915284610baf565b610ded57600080fd5b60015460405163fcd4014b60e01b81526001600160a01b0390911690819063fcd4014b906105ba9088908790600401611993565b600081565b60015460405163ac29186760e01b81526060916001600160a01b031690819063ac291867906109e1908690600401611965565b6000610e73600080516020611cd783398151915284610baf565b80610e915750610e91600080516020611cb783398151915284610baf565b610e9a57600080fd5b610ec47fe5786ee6f50ab1a5567cb3f3f6840a2f4ddbafdf4a35cb2c52d5b732b1e84a3283610baf565b610ecd57600080fd5b610ef77f0e55d2d590eb481461be8bfa869367231c671a31d6401bfeaf2d5cb5787ff25283610619565b50600192915050565b610f0982610555565b610f158161062e611063565b61063d8383611150565b600180546001600160a01b0319166001600160a01b0392909216919091179055565b60048054604051633887ab7360e21b815260609283926000926001600160a01b0390911691829163e21eadcc916108ee91899101611965565b6000610f94600080516020611cd783398151915284610baf565b610f9d57600080fd5b610fc77fc9c8e67a61d2e7371df46522b44051b955c16bf4b713ef44e1373b25bfcd80b283610baf565b610fd057600080fd5b610ef7600080516020611cb783398151915283610619565b6060806000611005600080516020611cd783398151915285610baf565b61100e57600080fd5b60035460405163e8300b1d60e01b81526001600160a01b0390911690819063e8300b1d906108ee908890600401611965565b6001600160e01b031981166301ffc9a760e01b14919050565b61068d82826110cb565b3390565b6110718282610baf565b61068d57611089816001600160a01b031660146111d3565b6110948360206111d3565b6040516020016110a59291906118f0565b60408051601f198184030181529082905262461bcd60e51b825261067a91600401611a2b565b6110d58282610baf565b61068d576000828152602081815260408083206001600160a01b03851684529091529020805460ff1916600117905561110c611063565b6001600160a01b0316816001600160a01b0316837f2f8788117e7eff1d82e926ec794901d17c78024a50270940304540a733656f0d60405160405180910390a45050565b61115a8282610baf565b1561068d576000828152602081815260408083206001600160a01b03851684529091529020805460ff1916905561118f611063565b6001600160a01b0316816001600160a01b0316837ff6391f5c32d9c69d2a47ea670b442974b53935d1edc7fd64eb21e047a839171b60405160405180910390a45050565b606060006111e2836002611c10565b6111ed906002611bf8565b67ffffffffffffffff81111561121357634e487b7160e01b600052604160045260246000fd5b6040519080825280601f01601f19166020018201604052801561123d576020820181803683370190505b509050600360fc1b8160008151811061126657634e487b7160e01b600052603260045260246000fd5b60200101906001600160f81b031916908160001a905350600f60fb1b816001815181106112a357634e487b7160e01b600052603260045260246000fd5b60200101906001600160f81b031916908160001a90535060006112c7846002611c10565b6112d2906001611bf8565b90505b6001811115611366576f181899199a1a9b1b9c1cb0b131b232b360811b85600f166010811061131457634e487b7160e01b600052603260045260246000fd5b1a60f81b82828151811061133857634e487b7160e01b600052603260045260246000fd5b60200101906001600160f81b031916908160001a90535060049490941c9361135f81611c5b565b90506112d5565b50831561054e5760405162461bcd60e51b815260040161067a90611b22565b600082601f830112611395578081fd5b81356113a86113a382611bd0565b611ba6565b8181528460208386010111156113bc578283fd5b816020850160208301379081016020019190915292915050565b600082601f8301126113e6578081fd5b81516113f46113a382611bd0565b818152846020838601011115611408578283fd5b610718826020830160208701611c2f565b60006020828403121561142a578081fd5b813561054e81611c9e565b60008060408385031215611447578081fd5b823561145281611c9e565b9150602083013561146281611c9e565b809150509250929050565b600080600060608486031215611481578081fd5b833561148c81611c9e565b9250602084013561149c81611c9e565b929592945050506040919091013590565b6000806000606084860312156114c1578283fd5b83356114cc81611c9e565b925060208401356114dc81611c9e565b9150604084013567ffffffffffffffff8111156114f7578182fd5b61150386828701611385565b9150509250925092565b6000806040838503121561151f578182fd5b823561152a81611c9e565b9150602083013567ffffffffffffffff811115611545578182fd5b61155185828601611385565b9150509250929050565b6000602080838503121561156d578182fd5b825167ffffffffffffffff80821115611584578384fd5b818501915085601f830112611597578384fd5b8151818111156115a9576115a9611c88565b6115b68485830201611ba6565b8181528481019250838501865b838110156115ec576115da8a8884518901016113d6565b855293860193908601906001016115c3565b509098975050505050505050565b60006020828403121561160b578081fd5b8151801515811461054e578182fd5b60006020828403121561162b578081fd5b5035919050565b60008060408385031215611644578182fd5b82359150602083013561146281611c9e565b600060208284031215611667578081fd5b81356001600160e01b03198116811461054e578182fd5b60006020828403121561168f578081fd5b815167ffffffffffffffff8111156116a5578182fd5b610718848285016113d6565b6000806000606084860312156116c5578081fd5b833567ffffffffffffffff808211156116dc578283fd5b6116e887838801611385565b945060208601359150808211156116fd578283fd5b5061170a86828701611385565b925050604084013561171b81611c9e565b809150509250925092565b60008060006060848603121561173a578081fd5b835167ffffffffffffffff80821115611751578283fd5b61175d878388016113d6565b94506020860151915080821115611772578283fd5b5061177f868287016113d6565b925050604084015161171b81611c9e565b600080600080608085870312156117a5578182fd5b843567ffffffffffffffff808211156117bc578384fd5b6117c888838901611385565b955060208701359150808211156117dd578384fd5b506117ea87828801611385565b93505060408501356117fb81611c9e565b9150606085013561180b81611c9e565b939692955090935050565b600080600080600060a0868803121561182d578283fd5b853567ffffffffffffffff80821115611844578485fd5b61185089838a01611385565b96506020880135915080821115611865578485fd5b61187189838a01611385565b95506040880135915061188382611c9e565b90935060608701359061189582611c9e565b909250608087013590808211156118aa578283fd5b506118b788828901611385565b9150509295509295909350565b600081518084526118dc816020860160208601611c2f565b601f01601f19169290920160200192915050565b60007f416363657373436f6e74726f6c3a206163636f756e742000000000000000000082528351611928816017850160208801611c2f565b7001034b99036b4b9b9b4b733903937b6329607d1b6017918401918201528351611959816028840160208801611c2f565b01602801949350505050565b6001600160a01b0391909116815260200190565b6001600160a01b0392831681529116602082015260400190565b6001600160a01b0383168152604060208201819052600090610718908301846118c4565b6000602080830181845280855180835260408601915060408482028701019250838701855b82811015611a0a57603f198886030184526119f88583516118c4565b945092850192908501906001016119dc565b5092979650505050505050565b901515815260200190565b90815260200190565b60006020825261054e60208301846118c4565b600060608252611a5160608301866118c4565b8281036020840152611a6381866118c4565b91505060018060a01b0383166040830152949350505050565b600060808252611a8f60808301876118c4565b8281036020840152611aa181876118c4565b6001600160a01b03958616604085015293909416606090920191909152509392505050565b600060a08252611ad960a08301886118c4565b8281036020840152611aeb81886118c4565b6001600160a01b0387811660408601528616606085015283810360808501529050611b1681856118c4565b98975050505050505050565b6020808252818101527f537472696e67733a20686578206c656e67746820696e73756666696369656e74604082015260600190565b6020808252602f908201527f416363657373436f6e74726f6c3a2063616e206f6e6c792072656e6f756e636560408201526e103937b632b9903337b91039b2b63360891b606082015260800190565b60405181810167ffffffffffffffff81118282101715611bc857611bc8611c88565b604052919050565b600067ffffffffffffffff821115611bea57611bea611c88565b50601f01601f191660200190565b60008219821115611c0b57611c0b611c72565b500190565b6000816000190483118215151615611c2a57611c2a611c72565b500290565b60005b83811015611c4a578181015183820152602001611c32565b838111156109a85750506000910152565b600081611c6a57611c6a611c72565b506000190190565b634e487b7160e01b600052601160045260246000fd5b634e487b7160e01b600052604160045260246000fd5b6001600160a01b0381168114611cb357600080fd5b5056feaa5dabedfa16172c67f74bf2293d462402d380790ac2275169499fcded0d780547a8a9b8917c993d90f37744bb40dfb774c4593d1a1660ed38db000e33156502a264697066735822122075aece4828b6b7187b9b08be9694e99107c7bea1af5b88791e21d214bffad73c64736f6c6343000800003347a8a9b8917c993d90f37744bb40dfb774c4593d1a1660ed38db000e33156502",
  "immutableReferences": {},
  "source": "//SPDX-License-Identifier: MIT\r\npragma solidity ^0.8.0;\r\n\r\n\r\n\r\nimport \"./access/AccessControlEnumerable.sol\";\r\nimport \"./Roles.sol\";\r\nimport \"./Patient.sol\";\r\nimport \"./Doctor.sol\";\r\nimport \"./Hospital.sol\";\r\nimport \"./Pharmacy.sol\";\r\n\r\ncontract Healthcare is AccessControl {\r\n    //: Constructor\r\n    constructor() {\r\n        _setRoleAdmin(HOSPITAL_ADMIN, HOSPITAL_ADMIN);\r\n        _setRoleAdmin(DOCTOR, HOSPITAL_ADMIN);\r\n        _setRoleAdmin(PATIENT, HOSPITAL_ADMIN);\r\n\r\n        // default role of contract deployer\r\n        _setupRole(DEFAULT_ADMIN_ROLE, msg.sender);\r\n    }\r\n\r\n    // contract address - needed to access other contacts and call functions from other contracts\r\n    address patientContractAddress;\r\n    address doctorContractAddress;\r\n    address hospitalContractAddress;\r\n    address pharmacyContractAddress;\r\n\r\n    function setPatientContractAddress(address _patientAddress) external {\r\n        patientContractAddress = _patientAddress;\r\n    }\r\n\r\n    function setDoctorContractAddress(address _doctorAddress) external {\r\n        doctorContractAddress = _doctorAddress;\r\n    }\r\n\r\n    function setHospitalContractAddress(address _hospitalContractAddress)\r\n        external\r\n    {\r\n        hospitalContractAddress = _hospitalContractAddress;\r\n    }\r\n\r\n    function setPharmacyContractAddress(address _pharmacyContractAddress)\r\n        external\r\n    {\r\n        pharmacyContractAddress = _pharmacyContractAddress;\r\n    }\r\n\r\n    // Register functions for all entities\r\n\r\n    function registerPatient(\r\n        string memory _name,\r\n        string memory _personalDetails,\r\n        address _hospitalAddress,\r\n        address addressOfUser,\r\n        string memory _hash\r\n    ) public returns (string memory status) {\r\n        _setupRole(PATIENT, addressOfUser);\r\n        Patient P = Patient(patientContractAddress);\r\n        return\r\n            P.registerPatient(\r\n                _name,\r\n                _personalDetails,\r\n                _hospitalAddress,\r\n                addressOfUser,\r\n                _hash\r\n            );\r\n    }\r\n\r\n    function registerDoctor(\r\n        string memory _name,\r\n        string memory _personalDetails,\r\n        address _hospitalAddress,\r\n        address addressOfUser\r\n    ) public returns (string memory status) {\r\n        _setupRole(DOCTOR, addressOfUser);\r\n        Doctor D = Doctor(doctorContractAddress);\r\n        return\r\n            D.registerDoctor(\r\n                _name,\r\n                _personalDetails,\r\n                _hospitalAddress,\r\n                addressOfUser\r\n            );\r\n    }\r\n\r\n    function registerHospital(\r\n        string memory _name,\r\n        string memory _hospitalDetails,\r\n        address _hospitalAddress\r\n    ) public returns (string memory status) {\r\n        _setupRole(HOSPITAL_ADMIN, _hospitalAddress);\r\n        Hospital H = Hospital(hospitalContractAddress);\r\n        return H.registerHospital(_name, _hospitalDetails, _hospitalAddress);\r\n    }\r\n\r\n    function registerPharmacy(\r\n        string memory _name,\r\n        string memory _personalDetails,\r\n        address addressOfUser\r\n    ) public returns (string memory status) {\r\n        _setupRole(PHARMACY, addressOfUser);\r\n        Pharmacy Ph = Pharmacy(pharmacyContractAddress);\r\n        return Ph.registerPharmacy(_name, _personalDetails, addressOfUser);\r\n    }\r\n\r\n    // Get Data With Respect To Single Entity : functions\r\n    function getPatientData(address _addressOfPatient)\r\n        public\r\n        view\r\n        returns (\r\n            string memory name,\r\n            string memory personalDetails,\r\n            address Address\r\n        )\r\n    {\r\n        require(hasRole(VERIFIED_PATIENT, _addressOfPatient));\r\n        Patient P = Patient(patientContractAddress);\r\n        return P.getPatientData(_addressOfPatient);\r\n    }\r\n\r\n    function getDoctorData(\r\n        address addressOfUser,\r\n        address _addressOfHigherAuthority\r\n    )\r\n        public\r\n        view\r\n        returns (\r\n            string memory name,\r\n            string memory personalDetails,\r\n            address Address\r\n        )\r\n    {\r\n        require(\r\n            hasRole(DOCTOR, addressOfUser) ||\r\n                hasRole(VERIFIED_DOCTOR, addressOfUser) ||\r\n                hasRole(HOSPITAL_ADMIN, addressOfUser)\r\n        );\r\n        Doctor D = Doctor(doctorContractAddress);\r\n        return D.getDoctorData(addressOfUser, _addressOfHigherAuthority);\r\n    }\r\n\r\n    function getHospitalData(address addressOfHospital)\r\n        public\r\n        view\r\n        returns (\r\n            string memory _nameAdmin,\r\n            string memory hospitalDetails,\r\n            address walletAddress\r\n        )\r\n    {\r\n        require(hasRole(HOSPITAL_ADMIN, addressOfHospital));\r\n        Hospital H = Hospital(hospitalContractAddress);\r\n        return H.getHospitalData(addressOfHospital);\r\n    }\r\n\r\n    function getPharmacyData(address addressOfPharmacy)\r\n        public\r\n        view\r\n        returns (\r\n            string memory pharmacyName,\r\n            string memory pharmacyDetails,\r\n            address pharmacyWalletAddress\r\n        )\r\n    {\r\n        Pharmacy Ph = Pharmacy(pharmacyContractAddress);\r\n        return Ph.getPharmacyData(addressOfPharmacy);\r\n    }\r\n\r\n    function updatePatientPersonalData(\r\n        address _walletAddress,\r\n        string memory _personalDetails\r\n    ) public returns (bool success) {\r\n        Patient P = Patient(patientContractAddress);\r\n        return P.updatePatientPersonalData(_walletAddress, _personalDetails);\r\n    }\r\n\r\n    function updatePatientMedicalRecords(\r\n        address _patientAddress,\r\n        address _addressOfHigherAuthority,\r\n        string memory medicalRecordHash\r\n    ) external returns (string memory status) {\r\n        require(hasRole(VERIFIED_DOCTOR, _addressOfHigherAuthority));\r\n        Patient P = Patient(patientContractAddress);\r\n        return\r\n            P.updatePatientMedicalRecords(_patientAddress, medicalRecordHash);\r\n    }\r\n\r\n    function updatePrescriptionToPatient(\r\n        address _patientAddress,\r\n        address _addressOfHigherAuthority,\r\n        string memory prescriptionHash\r\n    ) external returns (string memory status) {\r\n        require(hasRole(VERIFIED_DOCTOR, _addressOfHigherAuthority));\r\n        Patient P = Patient(patientContractAddress);\r\n        return P.updatePatientPrescription(_patientAddress, prescriptionHash);\r\n    }\r\n\r\n    function getNewPrescription(address _patientAddress)\r\n        external\r\n        view\r\n        returns (string memory status)\r\n    {\r\n        Patient P = Patient(patientContractAddress);\r\n        return P.getNewPrescription(_patientAddress);\r\n    }\r\n\r\n    function getMultiplePrescription(address _patientAddress)\r\n        external\r\n        view\r\n        returns (string[] memory status)\r\n    {\r\n        Patient P = Patient(patientContractAddress);\r\n        return P.getMultiplePrescription(_patientAddress);\r\n    }\r\n\r\n    function getNewRecords(address _patientAddress)\r\n        external\r\n        view\r\n        returns (string memory status)\r\n    {\r\n        Patient P = Patient(patientContractAddress);\r\n        return P.getNewRecords(_patientAddress);\r\n    }\r\n\r\n    function getMultipleRecords(address _patientAddress)\r\n        external\r\n        view\r\n        returns (string[] memory status)\r\n    {\r\n        Patient P = Patient(patientContractAddress);\r\n        return P.getMultipleRecords(_patientAddress);\r\n    }\r\n\r\n    // Grant Role VERIFIED_PATIENT To Patient\r\n    function grantRoleVerifiedPatient(\r\n        address _addressOfAdmin,\r\n        address _addressOfPatient\r\n    ) public returns (bool success) {\r\n        require(\r\n            hasRole(HOSPITAL_ADMIN, _addressOfAdmin) ||\r\n                hasRole(VERIFIED_DOCTOR, _addressOfAdmin)\r\n        );\r\n        require(hasRole(PATIENT, _addressOfPatient));\r\n        grantRole(VERIFIED_PATIENT, _addressOfPatient);\r\n        return true;\r\n    }\r\n\r\n    // Grant Role VERIFIED_DOCTOR to Doctor\r\n    function grantRoleVerifiedDoctor(\r\n        address _addressOfAdmin,\r\n        address _addressOfDoctor\r\n    ) public returns (bool success) {\r\n        require(hasRole(HOSPITAL_ADMIN, _addressOfAdmin));\r\n        require(hasRole(DOCTOR, _addressOfDoctor));\r\n        grantRole(VERIFIED_DOCTOR, _addressOfDoctor);\r\n        return true;\r\n    }\r\n\r\n    function fetchPrescriptionDetailsPharmacy(\r\n        address _patientAddress,\r\n        address _addressOfHigherAuthority\r\n    ) external view returns (string memory prescriptionHash) {\r\n        require(\r\n            hasRole(PHARMACY, _addressOfHigherAuthority) ||\r\n                hasRole(VERIFIED_DOCTOR, _addressOfHigherAuthority) ||\r\n                hasRole(VERIFIED_PATIENT, _addressOfHigherAuthority)\r\n        );\r\n\r\n        Patient P = Patient(patientContractAddress);\r\n        return P.getNewPrescription(_patientAddress);\r\n    }\r\n\r\n    function getEthBalance(address _addr) external view returns (uint256) {\r\n        return _addr.balance;\r\n    }\r\n\r\n    function transferMoney(\r\n        address _senderAddress,\r\n        address payable _receiverAddress,\r\n        uint256 _amount\r\n    ) external {\r\n        require(msg.sender == _senderAddress);\r\n        _receiverAddress.transfer(_amount);\r\n    }\r\n}\r\n",
  "sourcePath": "C:\\Users\\reube\\Documents\\blockchain_in_healthcare\\contracts\\Healthcare.sol",
  "compiler": {
    "name": "solc",
    "version": "0.8.0+commit.c7dfd78e.Emscripten.clang"
  },
  "schemaVersion": "3.4.4",
  "updatedAt": "2021-12-31T03:26:06.742Z",
  "networkType": "ethereum",
  "devdoc": {
    "kind": "dev",
    "methods": {
      "getRoleAdmin(bytes32)": {
        "details": "Returns the admin role that controls `role`. See {grantRole} and {revokeRole}. To change a role's admin, use {_setRoleAdmin}."
      },
      "grantRole(bytes32,address)": {
        "details": "Grants `role` to `account`. If `account` had not been already granted `role`, emits a {RoleGranted} event. Requirements: - the caller must have ``role``'s admin role."
      },
      "hasRole(bytes32,address)": {
        "details": "Returns `true` if `account` has been granted `role`."
      },
      "renounceRole(bytes32,address)": {
        "details": "Revokes `role` from the calling account. Roles are often managed via {grantRole} and {revokeRole}: this function's purpose is to provide a mechanism for accounts to lose their privileges if they are compromised (such as when a trusted device is misplaced). If the calling account had been granted `role`, emits a {RoleRevoked} event. Requirements: - the caller must be `account`."
      },
      "revokeRole(bytes32,address)": {
        "details": "Revokes `role` from `account`. If `account` had been granted `role`, emits a {RoleRevoked} event. Requirements: - the caller must have ``role``'s admin role."
      },
      "supportsInterface(bytes4)": {
        "details": "See {IERC165-supportsInterface}."
      }
    },
    "version": 1
  },
  "userdoc": {
    "kind": "user",
    "methods": {},
    "version": 1
  }
}