{
  "contractName": "Hospital",
  "abi": [
    {
      "anonymous": false,
      "inputs": [
        {
          "indexed": false,
          "internalType": "string",
          "name": "name",
          "type": "string"
        },
        {
          "indexed": false,
          "internalType": "uint256",
          "name": "empIdIndex",
          "type": "uint256"
        }
      ],
      "name": "LogDeleteHospital",
      "type": "event"
    },
    {
      "anonymous": false,
      "inputs": [
        {
          "indexed": false,
          "internalType": "string",
          "name": "name",
          "type": "string"
        },
        {
          "indexed": false,
          "internalType": "address",
          "name": "walletAddress",
          "type": "address"
        },
        {
          "indexed": false,
          "internalType": "address",
          "name": "owner",
          "type": "address"
        }
      ],
      "name": "LogHospital",
      "type": "event"
    },
    {
      "anonymous": false,
      "inputs": [
        {
          "indexed": false,
          "internalType": "string",
          "name": "name",
          "type": "string"
        },
        {
          "indexed": false,
          "internalType": "string",
          "name": "dateOfBirth",
          "type": "string"
        }
      ],
      "name": "LogUpdateHospital",
      "type": "event"
    },
    {
      "anonymous": false,
      "inputs": [
        {
          "indexed": true,
          "internalType": "bytes32",
          "name": "role",
          "type": "bytes32"
        },
        {
          "indexed": true,
          "internalType": "bytes32",
          "name": "previousAdminRole",
          "type": "bytes32"
        },
        {
          "indexed": true,
          "internalType": "bytes32",
          "name": "newAdminRole",
          "type": "bytes32"
        }
      ],
      "name": "RoleAdminChanged",
      "type": "event"
    },
    {
      "anonymous": false,
      "inputs": [
        {
          "indexed": true,
          "internalType": "bytes32",
          "name": "role",
          "type": "bytes32"
        },
        {
          "indexed": true,
          "internalType": "address",
          "name": "account",
          "type": "address"
        },
        {
          "indexed": true,
          "internalType": "address",
          "name": "sender",
          "type": "address"
        }
      ],
      "name": "RoleGranted",
      "type": "event"
    },
    {
      "anonymous": false,
      "inputs": [
        {
          "indexed": true,
          "internalType": "bytes32",
          "name": "role",
          "type": "bytes32"
        },
        {
          "indexed": true,
          "internalType": "address",
          "name": "account",
          "type": "address"
        },
        {
          "indexed": true,
          "internalType": "address",
          "name": "sender",
          "type": "address"
        }
      ],
      "name": "RoleRevoked",
      "type": "event"
    },
    {
      "inputs": [],
      "name": "DEFAULT_ADMIN_ROLE",
      "outputs": [
        {
          "internalType": "bytes32",
          "name": "",
          "type": "bytes32"
        }
      ],
      "stateMutability": "view",
      "type": "function",
      "constant": true
    },
    {
      "inputs": [
        {
          "internalType": "bytes32",
          "name": "role",
          "type": "bytes32"
        }
      ],
      "name": "getRoleAdmin",
      "outputs": [
        {
          "internalType": "bytes32",
          "name": "",
          "type": "bytes32"
        }
      ],
      "stateMutability": "view",
      "type": "function",
      "constant": true
    },
    {
      "inputs": [
        {
          "internalType": "bytes32",
          "name": "role",
          "type": "bytes32"
        },
        {
          "internalType": "address",
          "name": "account",
          "type": "address"
        }
      ],
      "name": "grantRole",
      "outputs": [],
      "stateMutability": "nonpayable",
      "type": "function"
    },
    {
      "inputs": [
        {
          "internalType": "bytes32",
          "name": "role",
          "type": "bytes32"
        },
        {
          "internalType": "address",
          "name": "account",
          "type": "address"
        }
      ],
      "name": "hasRole",
      "outputs": [
        {
          "internalType": "bool",
          "name": "",
          "type": "bool"
        }
      ],
      "stateMutability": "view",
      "type": "function",
      "constant": true
    },
    {
      "inputs": [
        {
          "internalType": "bytes32",
          "name": "role",
          "type": "bytes32"
        },
        {
          "internalType": "address",
          "name": "account",
          "type": "address"
        }
      ],
      "name": "renounceRole",
      "outputs": [],
      "stateMutability": "nonpayable",
      "type": "function"
    },
    {
      "inputs": [
        {
          "internalType": "bytes32",
          "name": "role",
          "type": "bytes32"
        },
        {
          "internalType": "address",
          "name": "account",
          "type": "address"
        }
      ],
      "name": "revokeRole",
      "outputs": [],
      "stateMutability": "nonpayable",
      "type": "function"
    },
    {
      "inputs": [
        {
          "internalType": "bytes4",
          "name": "interfaceId",
          "type": "bytes4"
        }
      ],
      "name": "supportsInterface",
      "outputs": [
        {
          "internalType": "bool",
          "name": "",
          "type": "bool"
        }
      ],
      "stateMutability": "view",
      "type": "function",
      "constant": true
    },
    {
      "inputs": [
        {
          "internalType": "string",
          "name": "_name",
          "type": "string"
        },
        {
          "internalType": "string",
          "name": "_hospitalDetails",
          "type": "string"
        },
        {
          "internalType": "address",
          "name": "walletAddress",
          "type": "address"
        }
      ],
      "name": "registerHospital",
      "outputs": [
        {
          "internalType": "string",
          "name": "status",
          "type": "string"
        }
      ],
      "stateMutability": "nonpayable",
      "type": "function"
    },
    {
      "inputs": [
        {
          "internalType": "address",
          "name": "addressOfUser",
          "type": "address"
        }
      ],
      "name": "getHospitalData",
      "outputs": [
        {
          "internalType": "string",
          "name": "_nameAdmin",
          "type": "string"
        },
        {
          "internalType": "string",
          "name": "hospitalDetails",
          "type": "string"
        },
        {
          "internalType": "address",
          "name": "walletAddress",
          "type": "address"
        }
      ],
      "stateMutability": "view",
      "type": "function",
      "constant": true
    }
  ],
  "bytecode": "0x608060405234801561001057600080fd5b50610caa806100206000396000f3fe608060405234801561001057600080fd5b50600436106100935760003560e01c806336568abe1161006657806336568abe1461011657806391d1485414610129578063a217fddf1461013c578063d547741f14610144578063e8300b1d1461015757610093565b806301ffc9a714610098578063248a9ca3146100c157806324a71857146100e15780632f2ff15d14610101575b600080fd5b6100ab6100a636600461096c565b610179565b6040516100b89190610aa6565b60405180910390f35b6100d46100cf366004610929565b6101a6565b6040516100b89190610ab1565b6100f46100ef366004610994565b6101bb565b6040516100b89190610aba565b61011461010f366004610941565b61027c565b005b610114610124366004610941565b6102a5565b6100ab610137366004610941565b6102f4565b6100d461031d565b610114610152366004610941565b610322565b61016a61016536600461090f565b610341565b6040516100b893929190610acd565b60006001600160e01b03198216637965db0b60e01b148061019e575061019e82610492565b90505b919050565b60009081526020819052604090206001015490565b60606101e77f47a8a9b8917c993d90f37744bb40dfb774c4593d1a1660ed38db000e33156502836104ab565b6001600160a01b03821660009081526001602090815260409091208551610210928701906107de565b506001600160a01b03821660008181526001602081815260409092206002810180546001600160a01b031916909417909355855161025493909101918601906107de565b50506040805180820190915260088152671213d4d41255105360c21b60208201529392505050565b610285826101a6565b610296816102916104b5565b6104b9565b6102a0838361051d565b505050565b6102ad6104b5565b6001600160a01b0316816001600160a01b0316146102e65760405162461bcd60e51b81526004016102dd90610b40565b60405180910390fd5b6102f082826105a2565b5050565b6000918252602082815260408084206001600160a01b0393909316845291905290205460ff1690565b600081565b61032b826101a6565b610337816102916104b5565b6102a083836105a2565b6001600160a01b0380821660009081526001602081905260408220600281015481546060958695948401921690839061037990610c0d565b80601f01602080910402602001604051908101604052809291908181526020018280546103a590610c0d565b80156103f25780601f106103c7576101008083540402835291602001916103f2565b820191906000526020600020905b8154815290600101906020018083116103d557829003601f168201915b5050505050925081805461040590610c0d565b80601f016020809104026020016040519081016040528092919081815260200182805461043190610c0d565b801561047e5780601f106104535761010080835404028352916020019161047e565b820191906000526020600020905b81548152906001019060200180831161046157829003601f168201915b505050505091509250925092509193909250565b6001600160e01b031981166301ffc9a760e01b14919050565b6102f0828261051d565b3390565b6104c382826102f4565b6102f0576104db816001600160a01b03166014610625565b6104e6836020610625565b6040516020016104f7929190610a31565b60408051601f198184030181529082905262461bcd60e51b82526102dd91600401610aba565b61052782826102f4565b6102f0576000828152602081815260408083206001600160a01b03851684529091529020805460ff1916600117905561055e6104b5565b6001600160a01b0316816001600160a01b0316837f2f8788117e7eff1d82e926ec794901d17c78024a50270940304540a733656f0d60405160405180910390a45050565b6105ac82826102f4565b156102f0576000828152602081815260408083206001600160a01b03851684529091529020805460ff191690556105e16104b5565b6001600160a01b0316816001600160a01b0316837ff6391f5c32d9c69d2a47ea670b442974b53935d1edc7fd64eb21e047a839171b60405160405180910390a45050565b60606000610634836002610ba7565b61063f906002610b8f565b67ffffffffffffffff81111561066557634e487b7160e01b600052604160045260246000fd5b6040519080825280601f01601f19166020018201604052801561068f576020820181803683370190505b509050600360fc1b816000815181106106b857634e487b7160e01b600052603260045260246000fd5b60200101906001600160f81b031916908160001a905350600f60fb1b816001815181106106f557634e487b7160e01b600052603260045260246000fd5b60200101906001600160f81b031916908160001a9053506000610719846002610ba7565b610724906001610b8f565b90505b60018111156107b8576f181899199a1a9b1b9c1cb0b131b232b360811b85600f166010811061076657634e487b7160e01b600052603260045260246000fd5b1a60f81b82828151811061078a57634e487b7160e01b600052603260045260246000fd5b60200101906001600160f81b031916908160001a90535060049490941c936107b181610bf6565b9050610727565b5083156107d75760405162461bcd60e51b81526004016102dd90610b0b565b9392505050565b8280546107ea90610c0d565b90600052602060002090601f01602090048101928261080c5760008555610852565b82601f1061082557805160ff1916838001178555610852565b82800160010185558215610852579182015b82811115610852578251825591602001919060010190610837565b5061085e929150610862565b5090565b5b8082111561085e5760008155600101610863565b80356001600160a01b03811681146101a157600080fd5b600082601f83011261089e578081fd5b813567ffffffffffffffff808211156108b9576108b9610c5e565b604051601f8301601f1916810160200182811182821017156108dd576108dd610c5e565b6040528281528483016020018610156108f4578384fd5b82602086016020830137918201602001929092529392505050565b600060208284031215610920578081fd5b6107d782610877565b60006020828403121561093a578081fd5b5035919050565b60008060408385031215610953578081fd5b8235915061096360208401610877565b90509250929050565b60006020828403121561097d578081fd5b81356001600160e01b0319811681146107d7578182fd5b6000806000606084860312156109a8578081fd5b833567ffffffffffffffff808211156109bf578283fd5b6109cb8783880161088e565b945060208601359150808211156109e0578283fd5b506109ed8682870161088e565b9250506109fc60408501610877565b90509250925092565b60008151808452610a1d816020860160208601610bc6565b601f01601f19169290920160200192915050565b60007f416363657373436f6e74726f6c3a206163636f756e742000000000000000000082528351610a69816017850160208801610bc6565b7001034b99036b4b9b9b4b733903937b6329607d1b6017918401918201528351610a9a816028840160208801610bc6565b01602801949350505050565b901515815260200190565b90815260200190565b6000602082526107d76020830184610a05565b600060608252610ae06060830186610a05565b8281036020840152610af28186610a05565b91505060018060a01b0383166040830152949350505050565b6020808252818101527f537472696e67733a20686578206c656e67746820696e73756666696369656e74604082015260600190565b6020808252602f908201527f416363657373436f6e74726f6c3a2063616e206f6e6c792072656e6f756e636560408201526e103937b632b9903337b91039b2b63360891b606082015260800190565b60008219821115610ba257610ba2610c48565b500190565b6000816000190483118215151615610bc157610bc1610c48565b500290565b60005b83811015610be1578181015183820152602001610bc9565b83811115610bf0576000848401525b50505050565b600081610c0557610c05610c48565b506000190190565b600281046001821680610c2157607f821691505b60208210811415610c4257634e487b7160e01b600052602260045260246000fd5b50919050565b634e487b7160e01b600052601160045260246000fd5b634e487b7160e01b600052604160045260246000fdfea264697066735822122084106fe748abdf6c3459292b93b6ccd8cba0c2e927219cd1471e1de0eb4eb76c64736f6c63430008000033",
  "immutableReferences": {},
  "source": "pragma solidity ^0.8.0;\r\n\r\n//SPDX-License-Identifier: MIT\r\nimport \"./access/AccessControlEnumerable.sol\";\r\nimport \"./Roles.sol\";\r\n\r\ncontract Hospital is AccessControl {\r\n    //  bytes32 constant DOCTOR = keccak256(\"DOCTOR\");\r\n\r\n    struct hospitalRecord {\r\n        string name;\r\n        string hospitalDetails;\r\n        address walletAddress;\r\n    }\r\n\r\n    event LogHospital(string name, address walletAddress, address owner);\r\n    event LogUpdateHospital(string name, string dateOfBirth);\r\n    event LogDeleteHospital(string name, uint256 empIdIndex);\r\n\r\n    //: HOSPITAL DATABASE\r\n    mapping(address => hospitalRecord) hospitalDatabase;\r\n\r\n    function registerHospital(\r\n        string memory _name,\r\n        string memory _hospitalDetails,\r\n        address walletAddress\r\n    ) external returns (string memory status) {\r\n        _setupRole(HOSPITAL_ADMIN, walletAddress);\r\n        hospitalDatabase[walletAddress].name = _name;\r\n        hospitalDatabase[walletAddress].walletAddress = walletAddress;\r\n        hospitalDatabase[walletAddress].hospitalDetails = _hospitalDetails;\r\n\r\n        return \"HOSPITAL\";\r\n    }\r\n\r\n    function getHospitalData(address addressOfUser)\r\n        public\r\n        view\r\n        returns (\r\n            string memory _nameAdmin,\r\n            string memory hospitalDetails,\r\n            address walletAddress\r\n        )\r\n    {\r\n        return (\r\n            hospitalDatabase[addressOfUser].name,\r\n            hospitalDatabase[addressOfUser].hospitalDetails,\r\n            hospitalDatabase[addressOfUser].walletAddress\r\n        );\r\n    }\r\n}\r\n",
  "sourcePath": "C:\\Users\\reube\\Documents\\blockchain_in_healthcare\\contracts\\Hospital.sol",
  "compiler": {
    "name": "solc",
    "version": "0.8.0+commit.c7dfd78e.Emscripten.clang"
  },
  "schemaVersion": "3.4.4",
  "updatedAt": "2021-12-31T03:26:06.713Z",
  "networkType": "ethereum",
  "devdoc": {
    "kind": "dev",
    "methods": {
      "getRoleAdmin(bytes32)": {
        "details": "Returns the admin role that controls `role`. See {grantRole} and {revokeRole}. To change a role's admin, use {_setRoleAdmin}."
      },
      "grantRole(bytes32,address)": {
        "details": "Grants `role` to `account`. If `account` had not been already granted `role`, emits a {RoleGranted} event. Requirements: - the caller must have ``role``'s admin role."
      },
      "hasRole(bytes32,address)": {
        "details": "Returns `true` if `account` has been granted `role`."
      },
      "renounceRole(bytes32,address)": {
        "details": "Revokes `role` from the calling account. Roles are often managed via {grantRole} and {revokeRole}: this function's purpose is to provide a mechanism for accounts to lose their privileges if they are compromised (such as when a trusted device is misplaced). If the calling account had been granted `role`, emits a {RoleRevoked} event. Requirements: - the caller must be `account`."
      },
      "revokeRole(bytes32,address)": {
        "details": "Revokes `role` from `account`. If `account` had been granted `role`, emits a {RoleRevoked} event. Requirements: - the caller must have ``role``'s admin role."
      },
      "supportsInterface(bytes4)": {
        "details": "See {IERC165-supportsInterface}."
      }
    },
    "version": 1
  },
  "userdoc": {
    "kind": "user",
    "methods": {},
    "version": 1
  }
}